:020000040000FA
:0400000000003228A2
:0E002200040064008C1E12281A08A4000800B6
:1000300012203030A402031C27280A302402031C9B
:1000400025280730A402031C272824080800533061
:100050005C2818208000800E182080040008A30768
:10006000840A080083160308FF00403099008312B9
:10007000903098008316243098008312C401913088
:10008000C5000330C600C40B43286400C50B4328D9
:10009000C60B4328871B0228C4018030C5000230EC
:1000A000C600871B0228C40B51286400C50B5128C9
:1000B000C60B512842309900A20012200D302402B4
:1000C000031D6928220899004630220203190228DC
:1000D0005D283A302402031D5D2800308A002A3052
:1000E0008400A30129202A08A1000310A10C0430D8
:1000F000AA072920AA0B792823080319812843304D
:100100005C282D08031989284630AD03031D4930AA
:100110005C285630A2002B08F2002C08F3002E3089
:10012000A5000310F20CF30C203072020318F02823
:10013000033073050319AF28A001A10AA503A50385
:10014000A00AF30303307305031D9D2803177208EB
:100150008F0073088D0003132508840020212108D7
:10016000A600362127080319C828A0000317720823
:100170008F00730803132107031703198F0A8D00DB
:100180000313250821072107840020212708A10740
:10019000042103195D285030A200F92064000008F2
:1001A000F000840A0008F100840A031771088E0029
:1001B00070088C0083160C1555308D00AA308D0008
:1001C0008C14000000000C1183128D0A03198F0A91
:1001D0000313A00BCE28042103195D2845305C28A9
:1001E00052305C2883166400981CF328831299000F
:1001F00008002108A00025088400031772088F005A
:1002000073088D0003130800F920831603178C1759
:100210000C140000000083120C0803130002031DDD
:100220000800840A03178D0A03198F0A0E080313A6
:100230000002031D0800840AA00B0529031508000D
:10024000831603178C170C140000000083120C088F
:1002500003138000840A03178D0A03198F0A0E08FE
:1002600003138000840AA00B20290800A701033093
:0C027000260503190800A70AA60A372972
:04027C000034003416
:02400E00761F1B
:00000001FF
